:100000000C942A000C943F000C943F000C943F0089
:100010000C943F000C943F000C943F000C943F0064
:100020000C943F000C943F000C943F000C943F0054
:100030000C943F000C943F000C943F000C943F0044
:100040000C943F000C943F000C943F000C943F0034
:100050000C943F0011241FBECFE5D8E0DEBFCDBF1A
:1000600010E0A0E6B0E0ECE2F2E002C005900D92F4
:10007000A83AB107D9F70E94D7000C9414010C9448
:1000800000008FE081BD08959C0183E083BF83E879
:1000900007C082BF98B7916098BF08B600FEFDCF39
:1000A00021503109B0F713BE0895662311F0C09AAC
:1000B00001C0C098C19882BB8FEF81BBC29A00007B
:1000C00000000000C2980895C098C19A11BA90B378
:1000D000C29A00000000000011BA90B3C2989923A0
:1000E0009CF30E9455000895B89AB99ABA9A80E193
:1000F00090E00E94440060E080E30E94550085E0AB
:1001000090E00E94440060E080E30E94550081E09E
:1001100090E00E94440060E08CE30E94640060E094
:100120008CE00E94640060E086E00E94640060E071
:1001300081E00E9464000895CF93C62F98E2899FC2
:10014000C00D112460E082E00E946400CC2331F0F5
:1001500060E084E10E946400C150D1F7CF9108951E
:10016000CF93DF93EC012196FC018081882331F04D
:1001700061E00E94640089918111FACFDF91CF91F3
:100180000895FC0180E090E0A0E2B1E480839183D7
:10019000A283B38314821582168217821086118679
:1001A0001286138614861586168617860895CF93B1
:1001B000DF93CDB7DEB7A1970FB6F894DEBF0FBEC1
:1001C000CDBF80E884BF84BF0E9474000E944100BC
:1001D000D098CE0142960E94C10060E080E00E946B
:1001E0009C0089E0E7E9F0E0DE01119601900D92B4
:1001F0008A95E1F7CE0101960E94B00088EE93E067
:100200000E94440060E080E00E949C0088E0E0EAF8
:10021000F0E0DE01119601900D928A95E1F7CE0192
:0C02200001960E94B000EECFF894FFCFD2
:10022C0025303269006D3A253032692E253032691D
:10023C0020783A253032692E253032692000693A0F
:10024C00253032692E2530326920613A25303269E9
:10025C002E253032692000626534206C6F6F70007F
:08026C00696E206C6F6F7000D9
:00000001FF
