:100000000C942A000C943F000C943F000C943F0089
:100010000C943F000C943F000C943F000C943F0064
:100020000C943F000C943F000C943F000C943F0054
:100030000C943F000C943F000C943F000C943F0044
:100040000C943F000C943F000C943F000C943F0034
:100050000C943F0011241FBECFE5D8E0DEBFCDBF1A
:1000600010E0A0E6B0E0ECE0F1E102C005900D92F6
:10007000A83AB107D9F70E940B030C9484080C949A
:1000800000009C0183E083BF83E808C082BF98B76B
:10009000916098BFA89508B600FEFDCF21503109A8
:1000A000A8F713BE0895662311F0C09A01C0C09846
:1000B000C19882BB8FEF81BBC29A00000000000094
:1000C000C2980895C098C19A11BA90B3C29A00001C
:1000D0000000000011BA90B3C29899239CF30E94CB
:1000E00053000895B89AB99ABA9A80E190E00E94B4
:1000F000410060E080E30E94530085E090E00E94B0
:10010000410060E080E30E94530081E090E00E94A3
:10011000410060E08CE30E94620060E08CE00E949D
:10012000620060E086E00E94620060E081E00E9480
:100130006200089560E081E00E9462000895CF931C
:10014000C62F98E2899FC00D112460E082E00E94D2
:100150006200CC2331F060E084E10E946200C15073
:10016000D1F7CF910895CF93DF93EC012196FC0155
:100170008081882331F061E00E94620089918111C1
:10018000FACFDF91CF910895CF93DF9314BA15BAC8
:1001900044B321E030E0F90102C0EE0FFF1F8A9561
:1001A000E2F7CF014E2B44BB95B38095892385BBE5
:1001B00084B3EB0124960C2E02C0220F331F0A9445
:1001C000E2F7922F9095892384BB85B3282B25BB1A
:1001D00081E090E00E94410023B330E002C03595F9
:1001E0002795CA95E2F781E090E020FF02C080E009
:1001F00090E0DF91CF9108950F931F93CF93DF93FA
:1002000000E010E01CC0BE01C8010E94C4000097BD
:1002100069F08CE291E00E944100000F111F000F75
:10022000111FC00FD11FCE0101960CC02196C43002
:10023000D10549F70F5F1F4F0430110519F0C0E0D9
:10024000D0E0E1CFDF91CF911F910F9108958130E0
:10025000910579F18230910579F18330910579F139
:100260008430910579F18530910579F186309105D9
:1002700079F18730910579F18830910579F18930EC
:10028000910579F18A30910579F18B30910579F1F9
:100290008C30910579F18D30910579F18E30910591
:1002A00079F18F30910579F1409781F181E190E00A
:1002B000089581E090E0089582E090E0089583E061
:1002C00090E008958AE090E0089584E090E0089539
:1002D00085E090E0089586E090E008958BE090E05E
:1002E000089587E090E0089588E090E0089589E01F
:1002F00090E008958CE090E008958DE090E00895FE
:1003000080E090E008958FE090E0089580E190E033
:1003100008953F983E9A379A369A84B195B10895D8
:10032000CF92DF92EF92FF920F931F93CF93DF93C1
:10033000EC010E948901BC0180E090E00E947604FB
:1003400020E030E040E85AE30E942D0520E030E054
:1003500040EA50E40E942D056B017C016887798793
:100360008A879B879B01AC016C817D818E819F81F7
:100370000E94C903882324F4CC82DD82EE82FF82AE
:10038000A7019601688179818A819B810E94280555
:10039000181624F4C882D982EA82FB826C897D898E
:1003A0008B010F5F1F4F1D8B0C8B288939894A8960
:1003B0005B89C701B6010E945D036B017C01688BFC
:1003C000798B8A8B9B8BB801110F880B990B0E943C
:1003D00078049B01AC01C701B6010E94CE036C8773
:1003E0007D878E879F87DF91CF911F910F91FF901F
:1003F000EF90DF90CF9008952F923F924F925F92AF
:100400006F927F928F929F92AF92BF92CF92DF9224
:10041000EF92FF920F931F93CF93DF93CDB7DEB789
:1004200065970FB6F894DEBF0FBECDBF1C0160E02C
:1004300080E00E949F00F10180809180A280B380C3
:10044000C501B4010E9440046A8B7B8B8C8B9D8B11
:10045000F1014480558066807780C301B2010E941B
:1004600040046B017C01072E000C880B990B0E9445
:1004700078049B01AC01C301B2010E945C0320E03F
:1004800030E048EC52E40E942D050E9447047F931F
:100490006F93DF92CF922A893B89B901330F880B82
:1004A000990B0E9478049B01AC01C501B4010E9424
:1004B0005C0320E030E048EC52E40E942D050E94ED
:1004C00047047F936F933B893F938A898F9385E697
:1004D00090E09F938F938E010F5F1F4F1F930F9399
:1004E0000E949A05C8010E94B300F10180849184A2
:1004F000A284B384C501B4010E9440046A8B7B8B43
:100500008C8B9D8BF1014484558466847784C30170
:10051000B2010E9440046B017C0160E081E00E9416
:100520009F00B6010D2C000C880B990B0E947804DB
:100530009B01AC01C301B2010E945C0320E030E0EA
:1005400048EC52E40E942D050E9447047F936F936C
:10055000DF92CF922A893B89B901330F880B990B1F
:100560000E9478049B01AC01C501B4010E945C03A8
:1005700020E030E048EC52E40E942D050E94470440
:100580007F936F933B893F938A898F938EE790E0A7
:100590009F938F931F930F930E949A05C8010E9407
:1005A000B3000FB6F894DEBF0FBECDBF65960FB691
:1005B000F894DEBF0FBECDBFDF91CF911F910F9199
:1005C000FF90EF90DF90CF90BF90AF909F908F9073
:1005D0007F906F905F904F903F902F900895FC0117
:1005E00080E090E0A0EAB0E480839183A283B383AB
:1005F000148215821682178210861186128613863F
:100600001486158616861786158A148A108A118A0A
:10061000128A138A0895CF93DF93CDB7DEB7A797D9
:100620000FB6F894DEBF0FBECDBF80E884BF84BF95
:100630000E947200D098CE0142960E94EF0200E024
:1006400010E0EE24E394F12CC12CD12C02C00E2D2D
:100650001F2D0E94FC000E94270181309105D1F4DA
:10066000CE0142960E94EF020E949A0060E080E074
:100670000E949F0080E1E7E9F0E0DE011196019021
:100680000D928A95E1F7CE0101960E94B3000C2DE0
:100690001D2DDFCF0297D9F201301105D1F6CE0121
:1006A00042960E949001CE0142960E94FC0184EF86
:1006B00091E00E944100CDCF5058BB27AA270E944D
:1006C00074030C94EE040E94E00438F00E94E704E6
:1006D00020F039F49F3F19F426F40C94DD040EF455
:1006E000E095E7FB0C94D704E92F0E94FF0458F330
:1006F000BA17620773078407950720F079F4A6F507
:100700000C9421050EF4E0950B2EBA2FA02D0B01B1
:10071000B90190010C01CA01A0011124FF27591B46
:1007200099F0593F50F4503E68F11A16F040A22F4C
:10073000232F342F4427585FF3CF469537952795BD
:10074000A795F0405395C9F77EF41F16BA0B620BBC
:10075000730B840BBAF09150A1F0FF0FBB1F661F03
:10076000771F881FC2F70EC0BA0F621F731F841F46
:1007700048F4879577956795B795F7959E3F08F06C
:10078000B0CF9395880F08F09927EE0F979587952E
:1007900008950E94B30408F481E008950E94E203E2
:1007A0000C94EE040E94E70458F00E94E00440F02C
:1007B00029F45F3F29F00C94D70451110C942205C1
:1007C0000C94DD040E94FF0468F39923B1F35523D0
:1007D00091F3951B550BBB27AA2762177307840754
:1007E00038F09F5F5F4F220F331F441FAA1FA9F3EA
:1007F00035D00E2E3AF0E0E832D091505040E695D8
:10080000001CCAF72BD0FE2F29D0660F771F881F38
:10081000BB1F261737074807AB07B0E809F0BB0B2B
:10082000802DBF01FF2793585F4F3AF09E3F51053F
:1008300078F00C94D7040C9422055F3FE4F3983EC3
:10084000D4F3869577956795B795F7959F5FC9F728
:10085000880F911D9695879597F90895E1E0660FA9
:10086000771F881FBB1F621773078407BA0720F022
:10087000621B730B840BBA0BEE1F88F7E09508958B
:100880000E9447046894B1110C94220508950E94B7
:10089000070588F09F5798F0B92F9927B751B0F006
:1008A000E1F0660F771F881F991F1AF0BA95C9F7F4
:1008B00014C0B13091F00E942105B1E008950C946C
:1008C0002105672F782F8827B85F39F0B93FCCF31F
:1008D000869577956795B395D9F73EF49095809571
:1008E000709561957F4F8F4F9F4F0895E89409C091
:1008F00097FB3EF490958095709561957F4F8F4F53
:100900009F4F9923A9F0F92F96E9BB279395F69568
:10091000879577956795B795F111F8CFFAF4BB0FE6
:1009200011F460FF1BC06F5F7F4F8F4F9F4F16C04A
:10093000882311F096E911C0772321F09EE8872FD4
:10094000762F05C0662371F096E8862F70E060E090
:100950002AF09A95660F771F881FDAF7880F969509
:10096000879597F90895990F0008550FAA0BE0E8AD
:10097000FEEF16161706E807F907C0F01216130661
:10098000E407F50798F0621B730B840B950B39F4A1
:100990000A2661F0232B242B252B21F408950A2607
:1009A00009F4A140A6958FEF811D811D089597F947
:1009B0009F6780E870E060E008959FEF80EC089505
:1009C00000240A941616170618060906089500242E
:1009D0000A9412161306140605060895092E0394A8
:1009E000000C11F4882352F0BB0F40F4BF2B11F41C
:1009F00060FF04C06F5F7F4F8F4F9F4F089557FD7B
:100A00009058440F551F59F05F3F71F04795880F7C
:100A100097FB991F61F09F3F79F087950895121613
:100A200013061406551FF2CF4695F1DF08C01616BF
:100A300017061806991FF1CF869571056105089470
:100A40000895E894BB2766277727CB0197F9089587
:100A50000E94B30408F48FEF08950E9440050C949F
:100A6000EE040E94E00438F00E94E70420F0952391
:100A700011F00C94D7040C94DD0411240C9422057D
:100A80000E94FF0470F3959FC1F3950F50E0551F2E
:100A9000629FF001729FBB27F00DB11D639FAA27D3
:100AA000F00DB11DAA1F649F6627B00DA11D661F22
:100AB000829F2227B00DA11D621F739FB00DA11D43
:100AC000621F839FA00D611D221F749F3327A00DFD
:100AD000611D231F849F600D211D822F762F6A2F99
:100AE00011249F5750409AF0F1F088234AF0EE0FFE
:100AF000FF1FBB1F661F771F881F91505040A9F72B
:100B00009E3F510580F00C94D7040C9422055F3F62
:100B1000E4F3983ED4F3869577956795B795F79566
:100B2000E7959F5FC1F7FE2B880F911D96958795DE
:100B300097F90895AEE0B0E0E0EAF5E00C945B08C8
:100B40000D891E8986E08C831A8309838FEF9FE7C6
:100B50009E838D83AE01475E5F4F6F89788DCE0196
:100B600001960E94BC05EF81F885E00FF11F10820D
:100B70002E96E4E00C947708ABE0B0E0E2ECF5E010
:100B80000C944D086C017B018A01FC0117821682CE
:100B9000838181FFCCC1CE0101963C01F601938196
:100BA000F70193FD859193FF81917F01882309F4DB
:100BB000BAC1853239F493FD859193FF81917F010C
:100BC000853229F4B60190E00E94B307E7CF912C5B
:100BD000212C312CFFE1F315D8F08B3279F038F469
:100BE000803279F08332A1F4232D20611DC08D3233
:100BF00061F0803369F4232D216016C0832D82605B
:100C0000382EE32DE4603E2E2AC0F32DF8601DC07F
:100C100037FC2DC020ED280F2A3040F08E32B9F479
:100C200036FC81C1232D2064322E19C036FE06C049
:100C30008AE0989E200D1124922E11C0EAE02E9E8B
:100C4000200D1124222EF32DF0623F2E08C08C3689
:100C500021F4832D8068382E02C0883641F4F701D4
:100C600093FD859193FF81917F018111B3CF982FDF
:100C70009F7D9554933028F40C5F1F4F9FE3998319
:100C80000DC0833631F0833771F0833509F059C0D8
:100C900021C0F801808189830E5F1F4F88248394CF
:100CA000912C530113C02801F2E04F0E511CF801A2
:100CB000A080B18036FE03C0692D70E002C06FEFE6
:100CC0007FEFC5010E94A8074C018201F32DFF7739
:100CD0003F2E16C0280122E0420E511CF801A080D0
:100CE000B18036FE03C0692D70E002C06FEF7FEF68
:100CF000C5010E949D074C01F32DF0683F2E820133
:100D000033FC1BC0822D90E088169906B0F4B60122
:100D100080E290E00E94B3072A94F4CFF50137FCFB
:100D2000859137FE81915F01B60190E00E94B30783
:100D300021102A9421E0821A91088114910471F7FC
:100D4000E8C0843611F0893641F5F80137FE07C056
:100D500060817181828193810C5F1F4F08C0608127
:100D60007181072E000C880B990B0E5F1F4FF32D1E
:100D7000FF763F2E97FF09C09095809570956195FD
:100D80007F4F8F4F9F4FF0683F2E2AE030E0A30146
:100D90000E94EF07882E861845C0853731F4232D31
:100DA0002F7EB22E2AE030E025C0932D997FB92EF8
:100DB0008F36C1F018F4883579F0B5C0803719F056
:100DC000883721F0B0C0E92FE061BE2EB4FE0DC01F
:100DD000FB2DF460BF2E09C034FE0AC0292F266007
:100DE000B22E06C028E030E005C020E130E002C0AD
:100DF00020E132E0F801B7FE07C060817181828195
:100E000093810C5F1F4F06C06081718180E090E08C
:100E10000E5F1F4FA3010E94EF07882E8618FB2D3F
:100E2000FF773F2E36FE0DC0232D2E7FA22E891474
:100E300058F434FE0BC032FC09C0832D8E7EA82EE0
:100E400005C0B82CA32C03C0B82C01C0B92CA4FE3B
:100E50000FC0FE01E80DF11D8081803321F49A2D31
:100E6000997EA92E09C0A2FE06C0B394B39404C013
:100E70008A2D867809F0B394A3FC11C0A0FE06C0A9
:100E8000B21488F4280C922C9B180EC0B21460F493
:100E9000B60180E290E00E94B307B394F7CFB2149A
:100EA00018F42B1802C0982C212CA4FE10C0B601F7
:100EB00080E390E00E94B307A2FE17C0A1FC03C02C
:100EC00088E790E002C088E590E0B6010CC08A2D6A
:100ED000867859F0A1FE02C08BE201C080E2A7FC37
:100EE0008DE2B60190E00E94B307891438F4B60190
:100EF00080E390E00E94B3079A94F7CF8A94F301BD
:100F0000E80DF11D8081B60190E00E94B3078110C9
:100F1000F5CF222009F442CEB60180E290E00E9493
:100F2000B3072A94F6CFF6018681978102C08FEF2E
:100F30009FEF2B96E2E10C946908FC01059061504B
:100F400070400110D8F7809590958E0F9F1F0895DF
:100F5000FC016150704001900110D8F78095909588
:100F60008E0F9F1F08950F931F93CF93DF93FB0165
:100F7000238121FD03C08FEF9FEF2CC022FF16C0FD
:100F800046815781248135814217530744F4A0815B
:100F9000B1819D012F5F3F4F318320838C93268148
:100FA00037812F5F3F4F3783268314C08B01EC01BD
:100FB000FB010084F185E02D0995892BE1F6D8012C
:100FC00016968D919C911797019617969C938E93E8
:100FD0001697CE01DF91CF911F910F910895FA01DD
:100FE000AA27283051F1203181F1E8946F936E7F68
:100FF0006E5F7F4F8F4F9F4FAF4FB1E03ED0B4E059
:101000003CD0670F781F891F9A1FA11D680F791F99
:101010008A1F911DA11D6A0F711D811D911DA11DAA
:1010200020D009F468943F912AE0269F11243019BA
:10103000305D3193DEF6CF010895462F4770405D55
:101040004193B3E00FD0C9F7F6CF462F4F70405D04
:101050004A3318F0495D31FD4052419302D0A9F75F
:10106000EACFB4E0A6959795879577956795BA9559
:10107000C9F700976105710508959B01AC010A2E1F
:1010800006945795479537952795BA95C9F7620FF6
:10109000731F841F951FA01D08952F923F924F929A
:1010A0005F926F927F928F929F92AF92BF92CF92F8
:1010B000DF92EF92FF920F931F93CF93DF93CDB701
:1010C000DEB7CA1BDB0B0FB6F894DEBF0FBECDBF79
:1010D00009942A88398848885F846E847D848C844A
:1010E0009B84AA84B984C884DF80EE80FD800C8153
:1010F0001B81AA81B981CE0FD11D0FB6F894DEBF36
:0C1100000FBECDBFED010895F894FFCFA5
:10110C0025303269006D3A253032692E253032692E
:10111C0020783A253032692E253032692000693A20
:10112C00253032692E2530326920613A25303269FA
:10113C002E253032692000526561647920746F204D
:08114C0073616D706C65000019
:00000001FF
